{
  "_format": "hh-sol-artifact-1",
  "contractName": "GasFeeTracker",
  "sourceName": "contracts/GasFeeTracker.sol",
  "abi": [
    {
      "anonymous": false,
      "inputs": [
        {
          "indexed": true,
          "internalType": "address",
          "name": "sender",
          "type": "address"
        },
        {
          "indexed": false,
          "internalType": "uint256",
          "name": "gasUsed",
          "type": "uint256"
        },
        {
          "indexed": false,
          "internalType": "uint256",
          "name": "timestamp",
          "type": "uint256"
        }
      ],
      "name": "TransactionRecorded",
      "type": "event"
    },
    {
      "inputs": [],
      "name": "getAllTransactions",
      "outputs": [
        {
          "components": [
            {
              "internalType": "address",
              "name": "sender",
              "type": "address"
            },
            {
              "internalType": "uint256",
              "name": "gasUsed",
              "type": "uint256"
            },
            {
              "internalType": "uint256",
              "name": "timestamp",
              "type": "uint256"
            }
          ],
          "internalType": "struct GasFeeTracker.Transaction[]",
          "name": "",
          "type": "tuple[]"
        }
      ],
      "stateMutability": "view",
      "type": "function"
    },
    {
      "inputs": [],
      "name": "recordTransaction",
      "outputs": [],
      "stateMutability": "nonpayable",
      "type": "function"
    },
    {
      "inputs": [
        {
          "internalType": "uint256",
          "name": "",
          "type": "uint256"
        }
      ],
      "name": "transactions",
      "outputs": [
        {
          "internalType": "address",
          "name": "sender",
          "type": "address"
        },
        {
          "internalType": "uint256",
          "name": "gasUsed",
          "type": "uint256"
        },
        {
          "internalType": "uint256",
          "name": "timestamp",
          "type": "uint256"
        }
      ],
      "stateMutability": "view",
      "type": "function"
    }
  ],
  "bytecode": "0x6080604052348015600f57600080fd5b5061064c8061001f6000396000f3fe608060405234801561001057600080fd5b50600436106100415760003560e01c806327506f531461004657806385fed9d5146100645780639ace38c21461006e575b600080fd5b61004e6100a0565b60405161005b9190610455565b60405180910390f35b61006c610169565b005b610088600480360381019061008391906104a8565b6102b0565b604051610097939291906104f3565b60405180910390f35b60606000805480602002602001604051908101604052809291908181526020016000905b8282101561016057838290600052602060002090600302016040518060600160405290816000820160009054906101000a900473ffffffffffffffffffffffffffffffffffffffff1673ffffffffffffffffffffffffffffffffffffffff1673ffffffffffffffffffffffffffffffffffffffff16815260200160018201548152602001600282015481525050815260200190600101906100c4565b50505050905090565b60005a905060005b60644261017e9190610559565b811015610192578080600101915050610171565b5060005a826101a191906105b9565b9050600060405180606001604052803373ffffffffffffffffffffffffffffffffffffffff16815260200183815260200142815250908060018154018082558091505060019003906000526020600020906003020160009091909190915060008201518160000160006101000a81548173ffffffffffffffffffffffffffffffffffffffff021916908373ffffffffffffffffffffffffffffffffffffffff160217905550602082015181600101556040820151816002015550503373ffffffffffffffffffffffffffffffffffffffff167fb2c18492dccd88fc8c1b7632a61134a8e61edbdbba5e9e2aaad535679a663b2082426040516102a49291906105ed565b60405180910390a25050565b600081815481106102c057600080fd5b90600052602060002090600302016000915090508060000160009054906101000a900473ffffffffffffffffffffffffffffffffffffffff16908060010154908060020154905083565b600081519050919050565b600082825260208201905092915050565b6000819050602082019050919050565b600073ffffffffffffffffffffffffffffffffffffffff82169050919050565b600061036182610336565b9050919050565b61037181610356565b82525050565b6000819050919050565b61038a81610377565b82525050565b6060820160008201516103a66000850182610368565b5060208201516103b96020850182610381565b5060408201516103cc6040850182610381565b50505050565b60006103de8383610390565b60608301905092915050565b6000602082019050919050565b60006104028261030a565b61040c8185610315565b935061041783610326565b8060005b8381101561044857815161042f88826103d2565b975061043a836103ea565b92505060018101905061041b565b5085935050505092915050565b6000602082019050818103600083015261046f81846103f7565b905092915050565b600080fd5b61048581610377565b811461049057600080fd5b50565b6000813590506104a28161047c565b92915050565b6000602082840312156104be576104bd610477565b5b60006104cc84828501610493565b91505092915050565b6104de81610356565b82525050565b6104ed81610377565b82525050565b600060608201905061050860008301866104d5565b61051560208301856104e4565b61052260408301846104e4565b949350505050565b7f4e487b7100000000000000000000000000000000000000000000000000000000600052601260045260246000fd5b600061056482610377565b915061056f83610377565b92508261057f5761057e61052a565b5b828206905092915050565b7f4e487b7100000000000000000000000000000000000000000000000000000000600052601160045260246000fd5b60006105c482610377565b91506105cf83610377565b92508282039050818111156105e7576105e661058a565b5b92915050565b600060408201905061060260008301856104e4565b61060f60208301846104e4565b939250505056fea26469706673582212207088f7f8171e9113ca7022e4e64000161b44c47e6b870376224d1079c61148cb64736f6c634300081c0033",
  "linkReferences": {},
  "deployedLinkReferences": {}
}